:100000000C9462000C948A000C948A000C948A0070
:100010000C948A000C948A000C948A000C948A0038
:100020000C948A000C948A000C948A000C948A0028
:100030000C948A000C948A000C948A000C948A0018
:100040000C94C9010C948A000C9451030C9479030C
:100050000C948A000C948A000C948A000C948A00F8
:100060000C948A000C948A000000000024002700F1
:100070002A0000000000250028002B0000000000DE
:1000800023002600290004040404040404040202DA
:100090000202020203030303030301020408102007
:1000A0004080010204081020010204081020000012
:1000B0000007000201000003040600000000000029
:1000C00000003E0411241FBECFEFD4E0DEBFCDBF41
:1000D00011E0A0E0B1E0ECEEF9E002C005900D9275
:1000E000A231B107D9F711E0A2E1B1E001C01D9240
:1000F000A23CB107E1F710E0C4ECD0E004C02297C5
:10010000FE010E94F004C23CD107C9F70E94C5005D
:100110000C94F4040C940000623018F40E94310135
:1001200005C070E0625070400E94690181E008954E
:100130008091000161E00E940D0108951F93CF930B
:10014000DF93C2E0D0E0809100016C2F0E948C0010
:1001500064EF71E080E090E00E9437022196CD3F8D
:10016000D10589F71CEF80910001612F0E948C005E
:1001700064EF71E080E090E00E943702115011308E
:1001800091F7DF91CF911F9108950E945E0283EA5B
:1001900091E040E855E260E070E00E94C0030E94F8
:1001A000980004C083EA91E00E94C80283EA91E0CB
:1001B0000E94990218161906ACF30E949E00F6CF11
:1001C000833071F0843028F48130A1F0823021F541
:1001D00014C08630B1F08730D1F08430E9F404C027
:1001E000809180008F7703C0809180008F7D809305
:1001F0008000089584B58F7702C084B58F7D84BD5B
:1002000008958091B0008F778093B0000895809119
:10021000B0008F7D8093B000089590E0FC01E65619
:10022000FF4F2491FC01EA57FF4FE491EE23C1F008
:10023000F0E0EE0FFF1FE859FF4F85919491DC012C
:10024000662341F49FB7F8948C91209582238C9378
:100250009FBF08959FB7F8948C91822B8C939FBF7A
:1002600008950F931F93DF93CF930F92CDB7DEB70F
:10027000282F30E0F901E255FF4F8491F901E6564D
:10028000FF4F14912A573F4FF90104910023D9F0F1
:10029000882321F069830E94E0006981E02FF0E06B
:1002A000EE0FFF1FEE58FF4F85919491DC019FB731
:1002B000F894662321F48C911095812302C08C91CF
:1002C000812B8C939FBF0F90CF91DF911F910F9146
:1002D00008951F93CF93DF93182FEB0161E00E94E5
:1002E0000D01209709F44AC0CF3FD10509F449C058
:1002F000E12FF0E0E255FF4FE491E330C1F0E4304C
:1003000028F4E13051F0E230B1F50CC0E63019F1DB
:10031000E73049F1E43079F514C084B5806884BDD4
:10032000C7BD33C084B5806284BDC8BD2EC0809176
:100330008000806880938000D0938900C0938800FB
:1003400024C080918000806280938000D0938B00D5
:10035000C0938A001AC08091B00080688093B0007A
:10036000C093B30012C08091B00080628093B0004F
:10037000C093B4000AC0C038D1051CF4812F60E0DE
:1003800002C0812F61E00E943101DF91CF911F9166
:1003900008951F920F920FB60F9211242F933F933F
:1003A0008F939F93AF93BF93809116019091170104
:1003B000A0911801B091190130911A010196A11D67
:1003C000B11D232F2D5F2D3720F02D570196A11D34
:1003D000B11D20931A018093160190931701A093E9
:1003E0001801B09319018091120190911301A0910D
:1003F0001401B09115010196A11DB11D8093120148
:1004000090931301A0931401B0931501BF91AF9184
:100410009F918F913F912F910F900FBE0F901F9042
:1004200018959FB7F89420911201309113014091D3
:1004300014015091150186B5A89B06C08F3F21F08D
:100440002F5F3F4F4F4F5F4F9FBF542F432F322F90
:100450002227280F311D411D511D82E0220F331F1D
:10046000441F551F8A95D1F7B901CA010895EF922B
:10047000FF920F931F93CF93DF937B018C010E9418
:100480001102EB010FC00E9411026C1B7D0B83E077
:10049000683E780738F00894E108F108010911096D
:1004A000C851DC4FE114F1040105110561F7DF913A
:1004B000CF911F910F91FF90EF900895789484B59C
:1004C000826084BD84B5816084BD85B5826085BD50
:1004D00085B5816085BDEEE6F0E080818160808336
:1004E000E1E8F0E010828081826080838081816019
:1004F0008083E0E8F0E0808181608083E1EBF0E0E0
:10050000808184608083E0EBF0E080818160808383
:10051000EAE7F0E08081846080838081826080836C
:100520008081816080838081806880831092C10097
:100530000895FC0184859585FC01E05CFF4F2081D6
:1005400031818E5B9F4FFC0180819181281B390B8B
:100550002F733070C9010895FC0184859585FC01D5
:10056000E05CFF4F40815181FC01EE5BFF4F208139
:1005700031814217530741F00190F081E02DE80FDF
:10058000F91F208130E002C02FEF3FEFC90108952D
:10059000FC0184859585FC01E05CFF4F4081518121
:1005A000FC01EE5BFF4F208131814217530771F050
:1005B000A081B181A80FB91F2C91808191810196F2
:1005C0008F7390709183808330E002C02FEF3FEFF4
:1005D000C9010895DC011E968D919C911F97FC0125
:1005E000E05CFF4F8E5B9F4F40815181DC012D917C
:1005F0003C91119742175307B9F708951F93FC01D7
:10060000162F26853785D901A05CBF4F8D919C910F
:10061000019660E470E00E94A504D901AE5BBF4F73
:100620004D915C91119784179507D1F3D901A05C86
:10063000BF4F0D90BC91A02DA20FB31F1C93A68598
:10064000B785A05CBF4F11969C938E93A689B789FE
:100650002C9181E090E0058C02C0880F991F0A94CC
:10066000E2F7282B2C9381E090E01F910895FB0185
:10067000E05CFF4F208131812F5F3F4F2F7330703F
:10068000DB01AE5BBF4F4D915C911197241735078D
:1006900039F0A081B181A60FB71F8C9331832083DD
:1006A00008951F920F920FB60F9211242F933F932C
:1006B0004F935F936F937F938F939F93AF93BF936A
:1006C000EF93FF938091C6006BE171E00E943703C6
:1006D000FF91EF91BF91AF919F918F917F916F911A
:1006E0005F914F913F912F910F900FBE0F901F90F0
:1006F00018951F920F920FB60F9211242F933F93CC
:100700005F936F937F938F939F93AF93BF93EF9379
:10071000FF9320919F013091A0018091A1019091C0
:10072000A2012817390731F48091C1008F7D809391
:10073000C10016C0E091A101F091A201E15AFE4F63
:1007400020818091A1019091A201019660E470E066
:100750000E94A5049093A2018093A1012093C6005A
:10076000FF91EF91BF91AF919F918F917F916F9189
:100770005F913F912F910F900FBE0F901F90189592
:10078000DF92EF92FF920F931F93CF93DF93EC01D1
:100790007A018B01DD24D394403081EE580780E04C
:1007A000680780E0780749F4DD24EC89FD89108230
:1007B00060E874E88EE190E00FC0EC89FD8981E08B
:1007C00090E00E8C02C0880F991F0A94E2F7808394
:1007D00060E079E08DE390E0A80197010E94B80401
:1007E00021503040404050405695479537952795C9
:1007F00080E12030380710F0DD20B1F6E889F98972
:100800003083EA89FB892083EE89FF89408181E07A
:1008100090E09C010A8C02C0220F331F0A94E2F779
:10082000422B4083EE89FF8940819C010B8C02C0E2
:10083000220F331F0A94E2F7422B4083EE89FF898F
:1008400040819C010C8C02C0220F331F0A94E2F7F6
:10085000422B4083EE89FF8920810D8C02C0880FD6
:10086000991F0A94E2F7809582238083DF91CF91CC
:100870001F910F91FF90EF90DF9008951092A601C5
:100880001092A50188EE93E0A0E0B0E08093A7016C
:100890009093A801A093A901B093AA01E5EAF1E021
:1008A00086E091E0929382938BE191E09587848733
:1008B0008FE591E09787868785EC90E0918B808B20
:1008C00084EC90E0938B828B80EC90E0958B848B12
:1008D00081EC90E0978B868B86EC90E0918F808FF7
:1008E00084E0828F83E0838F87E0848F85E0858F2B
:1008F00081E0868F0895CF92DF92EF92FF920F935F
:100900001F93CF93DF936C017B018A01C0E0D0E09D
:100910000FC0D7016D917D01D601ED91FC91019041
:10092000F081E02DC6010995C80FD91F0150104074
:100930000115110571F7CE01DF91CF911F910F9134
:10094000FF90EF90DF90CF90089597FB092E072638
:100950000AD077FD04D02ED006D000201AF470956E
:1009600061957F4F0895F6F7909581959F4F089573
:10097000A1E21A2EAA1BBB1BFD010DC0AA1FBB1FA3
:10098000EE1FFF1FA217B307E407F50720F0A21B15
:10099000B30BE40BF50B661F771F881F991F1A9482
:1009A00069F760957095809590959B01AC01BD01AC
:1009B000CF010895AA1BBB1B51E107C0AA1FBB1F93
:1009C000A617B70710F0A61BB70B881F991F5A95DB
:1009D000A9F780959095BC01CD010895EE0FFF1FFA
:0C09E0000590F491E02D0994F894FFCFED
:1009EC000B0000000000FE027B049902C802AC025E
:0209FC00EA020D
:00000001FF
